{
  "contractName": "Election",
  "abi": [
    {
      "inputs": [],
      "payable": false,
      "stateMutability": "nonpayable",
      "type": "constructor"
    },
    {
      "constant": true,
      "inputs": [],
      "name": "candidate",
      "outputs": [
        {
          "internalType": "string",
          "name": "",
          "type": "string"
        }
      ],
      "payable": false,
      "stateMutability": "view",
      "type": "function"
    },
    {
      "constant": true,
      "inputs": [
        {
          "internalType": "uint256",
          "name": "",
          "type": "uint256"
        }
      ],
      "name": "candidates",
      "outputs": [
        {
          "internalType": "uint256",
          "name": "id",
          "type": "uint256"
        },
        {
          "internalType": "string",
          "name": "name",
          "type": "string"
        },
        {
          "internalType": "uint256",
          "name": "voteCount",
          "type": "uint256"
        }
      ],
      "payable": false,
      "stateMutability": "view",
      "type": "function"
    },
    {
      "constant": true,
      "inputs": [],
      "name": "candidatesCount",
      "outputs": [
        {
          "internalType": "uint256",
          "name": "",
          "type": "uint256"
        }
      ],
      "payable": false,
      "stateMutability": "view",
      "type": "function"
    },
    {
      "constant": true,
      "inputs": [
        {
          "internalType": "address",
          "name": "",
          "type": "address"
        }
      ],
      "name": "voters",
      "outputs": [
        {
          "internalType": "bool",
          "name": "",
          "type": "bool"
        }
      ],
      "payable": false,
      "stateMutability": "view",
      "type": "function"
    },
    {
      "constant": false,
      "inputs": [
        {
          "internalType": "uint256",
          "name": "_candidateId",
          "type": "uint256"
        }
      ],
      "name": "vote",
      "outputs": [],
      "payable": false,
      "stateMutability": "nonpayable",
      "type": "function"
    }
  ],
  "bytecode": "0x608060405234801561001057600080fd5b506100556040518060400160405280600b81526020017f43616e646964617465203100000000000000000000000000000000000000000081525061009e60201b60201c565b6100996040518060400160405280600b81526020017f43616e646964617465203200000000000000000000000000000000000000000081525061009e60201b60201c565b6101bf565b60026000815480929190600101919050555060405180606001604052806002548152602001828152602001600081525060016000600254815260200190815260200160002060008201518160000155602082015181600101908051906020019061010992919061011a565b506040820151816002015590505050565b828054600181600116156101000203166002900490600052602060002090601f016020900481019282601f1061015b57805160ff1916838001178555610189565b82800160010185558215610189579182015b8281111561018857825182559160200191906001019061016d565b5b509050610196919061019a565b5090565b6101bc91905b808211156101b85760008160009055506001016101a0565b5090565b90565b6105ba806101ce6000396000f3fe608060405234801561001057600080fd5b50600436106100575760003560e01c80630121b93f1461005c5780632d35a8a21461008a5780633477ee2e146100a85780636c8381f81461015d578063a3ec138d146101e0575b600080fd5b6100886004803603602081101561007257600080fd5b810190808035906020019092919050505061023c565b005b6100926103ff565b6040518082815260200191505060405180910390f35b6100d4600480360360208110156100be57600080fd5b8101908080359060200190929190505050610405565b6040518084815260200180602001838152602001828103825284818151815260200191508051906020019080838360005b83811015610120578082015181840152602081019050610105565b50505050905090810190601f16801561014d5780820380516001836020036101000a031916815260200191505b5094505050505060405180910390f35b6101656104c7565b6040518080602001828103825283818151815260200191508051906020019080838360005b838110156101a557808201518184015260208101905061018a565b50505050905090810190601f1680156101d25780820380516001836020036101000a031916815260200191505b509250505060405180910390f35b610222600480360360208110156101f657600080fd5b81019080803573ffffffffffffffffffffffffffffffffffffffff169060200190929190505050610565565b604051808215151515815260200191505060405180910390f35b6000803373ffffffffffffffffffffffffffffffffffffffff1673ffffffffffffffffffffffffffffffffffffffff16815260200190815260200160002060009054906101000a900460ff16156102fb576040517f08c379a00000000000000000000000000000000000000000000000000000000081526004018080602001828103825260188152602001807f55736572206861766520766f746564206265666f72652121000000000000000081525060200191505060405180910390fd5b60008111801561030d57506002548111155b61037f576040517f08c379a00000000000000000000000000000000000000000000000000000000081526004018080602001828103825260118152602001807f496e76616c69642063616e64696461746500000000000000000000000000000081525060200191505060405180910390fd5b60016000803373ffffffffffffffffffffffffffffffffffffffff1673ffffffffffffffffffffffffffffffffffffffff16815260200190815260200160002060006101000a81548160ff021916908315150217905550600160008281526020019081526020016000206002016000815480929190600101919050555050565b60025481565b6001602052806000526040600020600091509050806000015490806001018054600181600116156101000203166002900480601f0160208091040260200160405190810160405280929190818152602001828054600181600116156101000203166002900480156104b75780601f1061048c576101008083540402835291602001916104b7565b820191906000526020600020905b81548152906001019060200180831161049a57829003601f168201915b5050505050908060020154905083565b60038054600181600116156101000203166002900480601f01602080910402602001604051908101604052809291908181526020018280546001816001161561010002031660029004801561055d5780601f106105325761010080835404028352916020019161055d565b820191906000526020600020905b81548152906001019060200180831161054057829003601f168201915b505050505081565b60006020528060005260406000206000915054906101000a900460ff168156fea265627a7a723158208ebe2eee47145f83095b12d27a5126dbaa974d5b3552c684eed8faa484227d9b64736f6c63430005100032",
  "source": "pragma solidity >=0.4.22  <0.7.0;\n\n//declare contract\ncontract Election {\n    //creating smoke test\n    //model a candidate\n    struct Candidate {\n        uint id;\n        string name;\n        uint voteCount;\n    }\n    //store accounts that have voted\n    mapping(address => bool) public voters;\n    //store candidate\n    //fetch candidate\n    mapping(uint =>Candidate) public candidates; //mappingis an associative array r a ahsh associativee key value pairs with one another\n    //store candidates Count\n    uint public candidatesCount;\n    string public candidate;\n    //constructor\n    constructor () public {\n        addCandidate(\"Candidate 1\");\n        addCandidate(\"Candidate 2\");\n    }\n    /*function election () public {\n        //candidate = \"candidate1\";//candidate is a state variable and it is accessible inside contract\n        addCandidate(\"Candidate 1\");\n        addCandidate(\"Candidate 2\");\n    }*/\n    function addCandidate (string memory _name) private { // private because not too be accessible by public interface of contract\n        candidatesCount ++;\n        candidates[candidatesCount] = Candidate({id: candidatesCount, name: _name, voteCount:0} );\n    }\n    function vote (uint _candidateId) public {\n        //user haven't voted before\n        require(!voters[msg.sender],'User have voted before!!');\n        //valid candidate\n        require(_candidateId > 0 && _candidateId <= candidatesCount,'Invalid candidate');\n        voters[msg.sender] = true;\n        candidates[_candidateId].voteCount ++;\n    }\n}\n//Election.deployed().then(function(instance) { app = instance })\n//app.vote(1, { from: accounts[0] })\n/*pragma solidity >=0.4.22 <0.7.0;\ncontract Ballot {\n    struct Voter {\n        uint weight;\n        bool voted;\n        address delegate;\n        uint vote;\n    }\n    struct proposal {\n        bytes32 name;\n        uint voteCount;\n    }\n\n    address public chairperson;\n    mapping(address => Voter ) public voters;\n    proposal[] public proposals;\n    constructor(bytes32[] memory proposalNames ) public {\n        chairperson = msg.sender;\n        voters[chairperson].weight = 1;\n        for(uint i = 0; i < proposalNames.length; i++) {\n            proposals.push(proposal({\n                name: proposalNames[i],\n                voteCount: 0\n            }));\n        }\n    }\n    function giveRightToVote(address voter) public {\n        require(\n            msg.sender == chairperson,\n            \"Only Chairperson can give right- to vote.\"\n        );\n        require(\n            !voters[voter].voted,\n            \"The voter already voted.\"\n        );\n        require(voters[voter].weight == 0, \"Error.\");\n        voters[voter].weight = 1;\n    }\n    function delegate(address to) public {\n        Voter storage sender = voters[msg.sender];\n        require(!sender.voted,\"You already voted.\");\n\n        require(to != msg.sender, \"Self-delegation is disallowed\");\n\n        while (voters[to].delegate != address(0)) {\n            to = voters[to].delegate;\n\n            require(to != msg.sender, \"Found loop in delegation.\");\n        }\n        sender.voted = true;\n        sender.delegate = to;\n        Voter storage delegate_ = voters[to];\n        if(delegate_.voted) {\n            proposals[delegate_.vote].voteCount += sender.weight;\n        } else {\n            delegate_.weight += sender.weight;\n        }\n    }\n    function vote(uint proposal)public {\n        Voter storage\n    }\n}\n\n    /// Delegate your vote to the voter `to`.\n    function delegate(address to) public {\n        // assigns reference\n        Voter storage sender = voters[msg.sender];\n        require(!sender.voted, \"You already voted.\");\n\n        require(to != msg.sender, \"Self-delegation is disallowed.\");\n\n        // Forward the delegation as long as\n        // `to` also delegated.\n        // In general, such loops are very dangerous,\n        // because if they run too long, they might\n        // need more gas than is available in a block.\n        // In this case, the delegation will not be executed,\n        // but in other situations, such loops might\n        // cause a contract to get \"stuck\" completely.\n        while (voters[to].delegate != address(0)) {\n            to = voters[to].delegate;\n\n            // We found a loop in the delegation, not allowed.\n            require(to != msg.sender, \"Found loop in delegation.\");\n        }\n\n        // Since `sender` is a reference, this\n        // modifies `voters[msg.sender].voted`\n        sender.voted = true;\n        sender.delegate = to;\n        Voter storage delegate_ = voters[to];\n        if (delegate_.voted) {\n            // If the delegate already voted,\n            // directly add to the number of votes\n            proposals[delegate_.vote].voteCount += sender.weight;\n        } else {\n            // If the delegate did not vote yet,\n            // add to her weight.\n            delegate_.weight += sender.weight;\n        }\n    }\n\n    /// Give your vote (including votes delegated to you)\n    /// to proposal `proposals[proposal].name`.\n    function vote(uint proposal) public {\n        Voter storage sender = voters[msg.sender];\n        require(sender.weight != 0, \"Has no right to vote\");\n        require(!sender.voted, \"Already voted.\");\n        sender.voted = true;\n        sender.vote = proposal;\n\n        // If `proposal` is out of the range of the array,\n        // this will throw automatically and revert all\n        // changes.\n        proposals[proposal].voteCount += sender.weight;\n    }\n\n    /// @dev Computes the winning proposal taking all\n    /// previous votes into account.\n    function winningProposal() public view\n            returns (uint winningProposal_)\n    {\n        uint winningVoteCount = 0;\n        for (uint p = 0; p < proposals.length; p++) {\n            if (proposals[p].voteCount > winningVoteCount) {\n                winningVoteCount = proposals[p].voteCount;\n                winningProposal_ = p;\n            }\n        }\n    }\n\n    // Calls winningProposal() function to get the index\n    // of the winner contained in the proposals array and then\n    // returns the name of the winner\n    function winnerName() public view\n            returns (bytes32 winnerName_)\n    {\n        winnerName_ = proposals[winningProposal()].name;\n    }pragma solidity >=0.4.22  <0.7.0;\n\n//declare contract\ncontract Election {\n    //creating smoke test\n    //model a candidate\n    struct Candidate {\n        uint id;\n        string name;\n        uint votCount;\n    }\n    //store candidate\n\n    //fetch candidate\n    mapping(uint =>Candidate) public candidates; //mappingis an associative array r a ahsh associativee key value pairs with one another\n    //store candidates Count\n    uint public candidatesCount;\n    string public candidate;\n    //constructor\n    function election () public {\n        //candidate = \"candidate1\";//candidate is a state variable and it is accessible inside contract\n        addCandidate(\"Candidate 1\");\n        addCandidate(\"Candidate 2\");\n    }\n    function addCandidate (string memory _name) private { // private because not too be accessible by public interface of contract\n        candidatesCount ++;\n        candidates[candidatesCount] = Candidate(candidatesCount, _name, 0);\n    }\n}\n//Election.deployed().then(function(instance) { app = instance })*/",
  "sourcePath": "/home/project/uday/contracts/Election.sol",
  "compiler": {
    "name": "solc",
    "version": "0.5.16+commit.9c3226ce.Emscripten.clang"
  },
  "schemaVersion": "3.0.22",
  "updatedAt": "2020-02-04T08:55:53.993Z",
  "networkType": "ethereum",
  "devdoc": {
    "methods": {}
  },
  "userdoc": {
    "methods": {}
  }
}